:100000000C9434000C9446000C9446000C9446006A
:100010000C9446000C9446000C9446000C94460048
:100020000C9446000C9446000C9446000C94460038
:100030000C9446000C9446000C9446000C94460028
:100040000C9446000C9446000C94CF000C948F0046
:100050000C9446000C9446000C9446000C94460008
:100060000C9446000C94460011241FBECFEFD8E03C
:10007000DEBFCDBF22E0A0E0B1E001C01D92A438F8
:10008000B207E1F70E94F1000C943D010C940000CE
:100090009093C5008093C400E1ECF0E08081886912
:1000A00080830895909100019F5F2091010129179D
:1000B000E1F3E92FF0E0EE5FFE4F808390930001C3
:1000C0008091C10080628093C1000895CF93DF9337
:1000D000EC018991811103C0DF91CF9108950E94B5
:1000E0005200F7CFCF93DF93CDB7DEB761970FB64E
:1000F000F894DEBF0FBECDBFAB01BE016F5F7F4F77
:100100000E94FD00CE0101960E94660061960FB626
:10011000F894DEBF0FBECDBFDF91CF9108951F923F
:100120000F920FB60F9211248F939F93EF93FF932B
:1001300090910001809101019817B1F08091010127
:100140008F5F80930101E0910101F0E0EE5FFE4FCF
:1001500080818093C600FF91EF919F918F910F90C6
:100160000FBE0F901F9018958091C1008F7D8093D6
:10017000C100F1CF9091020280910302981769F0BB
:10018000809103028F5F8F7780930302E0910302D7
:10019000F0E0EC5FFD4F8081089580E008951F92AC
:1001A0000F920FB60F9211248F939F93EF93FF93AB
:1001B0008091C600E0910202EF5FEF779091030219
:1001C0009E1731F0E0930202F0E0EC5FFD4F808378
:1001D000FF91EF919F918F910F900FBE0F901F9005
:1001E00018952FEF80E792E0215080409040E1F792
:1001F00000C0000090E080E008954532510520F4F1
:10020000423010F00C940801FB011082CB010895DC
:10021000BB274A3031F4992322F4BDE290958195B1
:100220009F4F0C941401BB27FB015527AA27880F69
:10023000991FAA1FA41710F0A41B83955051B9F75A
:10024000A05DAA3308F0A95DA193009779F7B111D9
:10025000B1931192CB010C942D01DC01FC01672FAD
:1002600071917723E1F7329704C07C916D9370838D
:0E0270006291AE17BF07C8F30895F894FFCF50
:00000001FF
